{"abi":[{"type":"constructor","inputs":[{"name":"_admin","type":"address","internalType":"address"},{"name":"_keeper","type":"address","internalType":"address"}],"stateMutability":"nonpayable"},{"type":"function","name":"DEFAULT_ADMIN_ROLE","inputs":[],"outputs":[{"name":"","type":"bytes32","internalType":"bytes32"}],"stateMutability":"view"},{"type":"function","name":"MAX_PER_USER","inputs":[],"outputs":[{"name":"","type":"uint256","internalType":"uint256"}],"stateMutability":"view"},{"type":"function","name":"MINT_BURN_ROLE","inputs":[],"outputs":[{"name":"","type":"bytes32","internalType":"bytes32"}],"stateMutability":"view"},{"type":"function","name":"_votingStrategy","inputs":[],"outputs":[{"name":"","type":"address","internalType":"contract IVotingStrategy"}],"stateMutability":"view"},{"type":"function","name":"adjust","inputs":[{"name":"_user","type":"address","internalType":"address"},{"name":"_amount","type":"uint256","internalType":"uint256"},{"name":"_userType","type":"uint8","internalType":"enum UserType"}],"outputs":[],"stateMutability":"nonpayable"},{"type":"function","name":"admin","inputs":[],"outputs":[{"name":"","type":"address","internalType":"address"}],"stateMutability":"view"},{"type":"function","name":"allowance","inputs":[{"name":"owner","type":"address","internalType":"address"},{"name":"spender","type":"address","internalType":"address"}],"outputs":[{"name":"","type":"uint256","internalType":"uint256"}],"stateMutability":"pure"},{"type":"function","name":"approve","inputs":[{"name":"spender","type":"address","internalType":"address"},{"name":"amount","type":"uint256","internalType":"uint256"}],"outputs":[{"name":"","type":"bool","internalType":"bool"}],"stateMutability":"pure"},{"type":"function","name":"balanceOf","inputs":[{"name":"_account","type":"address","internalType":"address"}],"outputs":[{"name":"","type":"uint256","internalType":"uint256"}],"stateMutability":"view"},{"type":"function","name":"burn","inputs":[{"name":"user","type":"address","internalType":"address"},{"name":"amount","type":"uint256","internalType":"uint256"}],"outputs":[],"stateMutability":"nonpayable"},{"type":"function","name":"cgpa","inputs":[{"name":"account","type":"address","internalType":"address"}],"outputs":[{"name":"","type":"uint256","internalType":"uint256"}],"stateMutability":"view"},{"type":"function","name":"decimals","inputs":[],"outputs":[{"name":"","type":"uint8","internalType":"uint8"}],"stateMutability":"view"},{"type":"function","name":"getRoleAdmin","inputs":[{"name":"role","type":"bytes32","internalType":"bytes32"}],"outputs":[{"name":"","type":"bytes32","internalType":"bytes32"}],"stateMutability":"view"},{"type":"function","name":"grantRole","inputs":[{"name":"role","type":"bytes32","internalType":"bytes32"},{"name":"account","type":"address","internalType":"address"}],"outputs":[],"stateMutability":"nonpayable"},{"type":"function","name":"hasRole","inputs":[{"name":"role","type":"bytes32","internalType":"bytes32"},{"name":"account","type":"address","internalType":"address"}],"outputs":[{"name":"","type":"bool","internalType":"bool"}],"stateMutability":"view"},{"type":"function","name":"maxPerUser","inputs":[],"outputs":[{"name":"","type":"uint256","internalType":"uint256"}],"stateMutability":"view"},{"type":"function","name":"mint","inputs":[{"name":"_user","type":"address","internalType":"address"},{"name":"_amount","type":"uint256","internalType":"uint256"},{"name":"_userType","type":"uint8","internalType":"enum UserType"}],"outputs":[],"stateMutability":"nonpayable"},{"type":"function","name":"name","inputs":[],"outputs":[{"name":"","type":"string","internalType":"string"}],"stateMutability":"view"},{"type":"function","name":"renounceRole","inputs":[{"name":"role","type":"bytes32","internalType":"bytes32"},{"name":"account","type":"address","internalType":"address"}],"outputs":[],"stateMutability":"nonpayable"},{"type":"function","name":"revoke","inputs":[{"name":"_user","type":"address","internalType":"address"}],"outputs":[],"stateMutability":"nonpayable"},{"type":"function","name":"revokeRole","inputs":[{"name":"role","type":"bytes32","internalType":"bytes32"},{"name":"account","type":"address","internalType":"address"}],"outputs":[],"stateMutability":"nonpayable"},{"type":"function","name":"setAdmin","inputs":[{"name":"_admin","type":"address","internalType":"address"}],"outputs":[],"stateMutability":"nonpayable"},{"type":"function","name":"setStrategy","inputs":[{"name":"newVotingStrategy","type":"address","internalType":"contract IVotingStrategy"}],"outputs":[],"stateMutability":"nonpayable"},{"type":"function","name":"strategy","inputs":[],"outputs":[{"name":"","type":"address","internalType":"address"}],"stateMutability":"view"},{"type":"function","name":"supportsInterface","inputs":[{"name":"interfaceId","type":"bytes4","internalType":"bytes4"}],"outputs":[{"name":"","type":"bool","internalType":"bool"}],"stateMutability":"view"},{"type":"function","name":"symbol","inputs":[],"outputs":[{"name":"","type":"string","internalType":"string"}],"stateMutability":"view"},{"type":"function","name":"totalSupply","inputs":[],"outputs":[{"name":"","type":"uint256","internalType":"uint256"}],"stateMutability":"view"},{"type":"function","name":"transfer","inputs":[{"name":"to","type":"address","internalType":"address"},{"name":"amount","type":"uint256","internalType":"uint256"}],"outputs":[{"name":"","type":"bool","internalType":"bool"}],"stateMutability":"pure"},{"type":"function","name":"transferFrom","inputs":[{"name":"from","type":"address","internalType":"address"},{"name":"to","type":"address","internalType":"address"},{"name":"amount","type":"uint256","internalType":"uint256"}],"outputs":[{"name":"","type":"bool","internalType":"bool"}],"stateMutability":"pure"},{"type":"function","name":"userType","inputs":[{"name":"account","type":"address","internalType":"address"}],"outputs":[{"name":"","type":"uint8","internalType":"enum UserType"}],"stateMutability":"view"},{"type":"function","name":"votingStrategy","inputs":[],"outputs":[{"name":"","type":"address","internalType":"contract IVotingStrategy"}],"stateMutability":"view"},{"type":"event","name":"Approval","inputs":[{"name":"owner","type":"address","indexed":true,"internalType":"address"},{"name":"spender","type":"address","indexed":true,"internalType":"address"},{"name":"value","type":"uint256","indexed":false,"internalType":"uint256"}],"anonymous":false},{"type":"event","name":"NewStrategy","inputs":[{"name":"strategy","type":"address","indexed":true,"internalType":"address"}],"anonymous":false},{"type":"event","name":"RoleAdminChanged","inputs":[{"name":"role","type":"bytes32","indexed":true,"internalType":"bytes32"},{"name":"previousAdminRole","type":"bytes32","indexed":true,"internalType":"bytes32"},{"name":"newAdminRole","type":"bytes32","indexed":true,"internalType":"bytes32"}],"anonymous":false},{"type":"event","name":"RoleGranted","inputs":[{"name":"role","type":"bytes32","indexed":true,"internalType":"bytes32"},{"name":"account","type":"address","indexed":true,"internalType":"address"},{"name":"sender","type":"address","indexed":true,"internalType":"address"}],"anonymous":false},{"type":"event","name":"RoleRevoked","inputs":[{"name":"role","type":"bytes32","indexed":true,"internalType":"bytes32"},{"name":"account","type":"address","indexed":true,"internalType":"address"},{"name":"sender","type":"address","indexed":true,"internalType":"address"}],"anonymous":false},{"type":"event","name":"Transfer","inputs":[{"name":"from","type":"address","indexed":true,"internalType":"address"},{"name":"to","type":"address","indexed":true,"internalType":"address"},{"name":"value","type":"uint256","indexed":false,"internalType":"uint256"}],"anonymous":false},{"type":"error","name":"EMPTY_BALANCE","inputs":[]},{"type":"error","name":"EXCEEDED_MAX_PER_USER","inputs":[]},{"type":"error","name":"UNDESIRED_BEHAVIOR","inputs":[]},{"type":"error","name":"USERTYPE_NONE","inputs":[]}],"bytecode":{"object":"0x60a06040527fa60cb0df7bc178038b993aa2e0df2e2cfb6627f4695e4261227d47422ae7e2a66007553480156200003557600080fd5b50604051620017c5380380620017c5833981016040819052620000589162000246565b6040518060400160405280601481526020017f53747564656e7420566f74696e6720506f7765720000000000000000000000008152506040518060400160405280600381526020016205356560ec1b81525060048260029081620000bd919062000325565b506003620000cc838262000325565b50620000db6002600a62000504565b620000ea9060ff83166200051c565b60805250620000ff9150600090508362000126565b6007546200010e908262000126565b6007546200011e906000620001b1565b505062000536565b620001328282620001fc565b620001ad5760008281526005602090815260408083206001600160a01b03851684529091529020805460ff191660011790556200016c3390565b6001600160a01b0316816001600160a01b0316837f2f8788117e7eff1d82e926ec794901d17c78024a50270940304540a733656f0d60405160405180910390a45b5050565b600082815260056020526040808220600101805490849055905190918391839186917fbd79b86ffe0ab8e8776151514217cd7cacd52c909f66475c3af44e129f0b00ff9190a4505050565b60008281526005602090815260408083206001600160a01b038516845290915290205460ff165b92915050565b80516001600160a01b03811681146200024157600080fd5b919050565b600080604083850312156200025a57600080fd5b620002658362000229565b9150620002756020840162000229565b90509250929050565b634e487b7160e01b600052604160045260246000fd5b600181811c90821680620002a957607f821691505b602082108103620002ca57634e487b7160e01b600052602260045260246000fd5b50919050565b601f82111562000320576000816000526020600020601f850160051c81016020861015620002fb5750805b601f850160051c820191505b818110156200031c5782815560010162000307565b5050505b505050565b81516001600160401b038111156200034157620003416200027e565b620003598162000352845462000294565b84620002d0565b602080601f831160018114620003915760008415620003785750858301515b600019600386901b1c1916600185901b1785556200031c565b600085815260208120601f198616915b82811015620003c257888601518255948401946001909101908401620003a1565b5085821015620003e15787850151600019600388901b60f8161c191681555b5050505050600190811b01905550565b634e487b7160e01b600052601160045260246000fd5b600181815b80851115620004485781600019048211156200042c576200042c620003f1565b808516156200043a57918102915b93841c93908002906200040c565b509250929050565b600082620004615750600162000223565b81620004705750600062000223565b81600181146200048957600281146200049457620004b4565b600191505062000223565b60ff841115620004a857620004a8620003f1565b50506001821b62000223565b5060208310610133831016604e8410600b8410161715620004d9575081810a62000223565b620004e5838362000407565b8060001904821115620004fc57620004fc620003f1565b029392505050565b60006200051560ff84168362000450565b9392505050565b8082028115828204841417620002235762000223620003f1565b60805161127362000552600039600061021401526112736000f3fe608060405234801561001057600080fd5b50600436106101e55760003560e01c806374a8f1031161010f578063c650b2dd116100a2578063dd62ed3e11610071578063dd62ed3e1461041f578063f1f39ceb14610435578063f851a44014610448578063fb5c8bfd1461045b57600080fd5b8063c650b2dd146103e7578063c7ba7548146103fa578063d03563ca14610403578063d547741f1461040c57600080fd5b8063a217fddf116100de578063a217fddf1461037a578063a8c62e7614610382578063a9059cbb14610257578063b83458b0146103a757600080fd5b806374a8f1031461033957806391d148541461034c57806395d89b411461035f5780639dc29fac1461036757600080fd5b80632f2ff15d116101875780634a5d730d116101565780634a5d730d146102ed5780636112e8ac14610300578063704b6c021461031357806370a082311461032657600080fd5b80632f2ff15d146102a3578063313ce567146102b857806333a100ca146102c757806336568abe146102da57600080fd5b8063095ea7b3116101c3578063095ea7b31461025757806318160ddd1461026a57806323b872dd14610272578063248a9ca31461028057600080fd5b806301ffc9a7146101ea57806306d586bb1461021257806306fdde0314610242575b600080fd5b6101fd6101f8366004610ec4565b61046e565b60405190151581526020015b60405180910390f35b7f00000000000000000000000000000000000000000000000000000000000000005b604051908152602001610209565b61024a6104a5565b6040516102099190610f12565b6101fd610265366004610f5a565b610537565b600154610234565b6101fd610265366004610f86565b61023461028e366004610fc7565b60009081526005602052604090206001015490565b6102b66102b1366004610fe0565b610572565b005b60405160028152602001610209565b6102b66102d5366004611010565b61059c565b6102b66102e8366004610fe0565b6105ca565b6102346102fb366004611010565b610648565b6102b661030e36600461102d565b61066c565b6102b6610321366004611010565b6106f9565b610234610334366004611010565b610727565b6102b6610347366004611010565b6107a3565b6101fd61035a366004610fe0565b6107f2565b61024a61081d565b6102b6610375366004610f5a565b61082c565b610234600081565b6004546001600160a01b03165b6040516001600160a01b039091168152602001610209565b6103da6103b5366004611010565b6001600160a01b0316600090815260208190526040902054600160f81b900460ff1690565b6040516102099190611089565b6102b66103f536600461102d565b61085c565b61023461019081565b61023460075481565b6102b661041a366004610fe0565b610928565b61023461042d3660046110b1565b600092915050565b60045461038f906001600160a01b031681565b60065461038f906001600160a01b031681565b60085461038f906001600160a01b031681565b60006001600160e01b03198216637965db0b60e01b148061049f57506301ffc9a760e01b6001600160e01b03198316145b92915050565b6060600280546104b4906110df565b80601f01602080910402602001604051908101604052809291908181526020018280546104e0906110df565b801561052d5780601f106105025761010080835404028352916020019161052d565b820191906000526020600020905b81548152906001019060200180831161051057829003601f168201915b5050505050905090565b60405162461bcd60e51b8152602060048201526008602482015267191a5cd8589b195960c21b60448201526000906064015b60405180910390fd5b60008281526005602052604090206001015461058d8161094d565b610597838361095a565b505050565b60006105a78161094d565b50600880546001600160a01b0319166001600160a01b0392909216919091179055565b6001600160a01b038116331461063a5760405162461bcd60e51b815260206004820152602f60248201527f416363657373436f6e74726f6c3a2063616e206f6e6c792072656e6f756e636560448201526e103937b632b9903337b91039b2b63360891b6064820152608401610569565b61064482826109e0565b5050565b6001600160a01b03166000908152602081905260409020546001600160f81b031690565b6007546106788161094d565b61019061068485610648565b61068e908561112f565b11156106ad576040516357c2fca960e01b815260040160405180910390fd5b60008260028111156106c1576106c1611073565b036106df57604051638810bfa760e01b815260040160405180910390fd5b6106e98483610a47565b6106f38484610a8d565b50505050565b60006107048161094d565b50600680546001600160a01b0319166001600160a01b0392909216919091179055565b6008546000906001600160a01b0316639c6d297661074484610648565b6040518263ffffffff1660e01b815260040161076291815260200190565b602060405180830381865afa15801561077f573d6000803e3d6000fd5b505050506040513d601f19601f8201168201806040525081019061049f9190611142565b6007546107af8161094d565b60006107ba83610648565b9050806000036107dd5760405163083ebd6f60e31b815260040160405180910390fd5b6107e8836000610a47565b6105978382610b65565b60009182526005602090815260408084206001600160a01b0393909316845291905290205460ff1690565b6060600380546104b4906110df565b6007546108388161094d565b8161084284610648565b0361085257610852836000610a47565b6105978383610b65565b6007546108688161094d565b600061087385610648565b9050610190610882828661112f565b11156108a1576040516357c2fca960e01b815260040160405180910390fd5b60008360028111156108b5576108b5611073565b036108d357604051638810bfa760e01b815260040160405180910390fd5b6108dd8584610a47565b600081851115610902576108f1828661115b565b90506108fd8682610a8d565b610920565b8185101561092057610914858361115b565b9050610920868261082c565b505050505050565b6000828152600560205260409020600101546109438161094d565b61059783836109e0565b6109578133610cb6565b50565b61096482826107f2565b6106445760008281526005602090815260408083206001600160a01b03851684529091529020805460ff1916600117905561099c3390565b6001600160a01b0316816001600160a01b0316837f2f8788117e7eff1d82e926ec794901d17c78024a50270940304540a733656f0d60405160405180910390a45050565b6109ea82826107f2565b156106445760008281526005602090815260408083206001600160a01b0385168085529252808320805460ff1916905551339285917ff6391f5c32d9c69d2a47ea670b442974b53935d1edc7fd64eb21e047a839171b9190a45050565b6001600160a01b038216600090815260208190526040902080548291906001600160f81b0316600160f81b836002811115610a8457610a84611073565b02179055505050565b6001600160a01b038216610ae35760405162461bcd60e51b815260206004820152601f60248201527f45524332303a206d696e7420746f20746865207a65726f2061646472657373006044820152606401610569565b8060016000828254610af5919061112f565b90915550506001600160a01b03821660008181526020818152604080832080546001600160f81b038082168801166001600160f81b0319909116179055518481527fddf252ad1be2c89b69c2b068fc378daa952ba7f163c4a11628f55a4df523b3ef910160405180910390a35050565b6001600160a01b038216610bc55760405162461bcd60e51b815260206004820152602160248201527f45524332303a206275726e2066726f6d20746865207a65726f206164647265736044820152607360f81b6064820152608401610569565b6001600160a01b0382166000908152602081905260409020546001600160f81b031681811015610c425760405162461bcd60e51b815260206004820152602260248201527f45524332303a206275726e20616d6f756e7420657863656564732062616c616e604482015261636560f01b6064820152608401610569565b6001600160a01b03831660008181526020818152604080832080546001600160f81b0319168787036001600160f81b0316179055600180548790039055518581529192917fddf252ad1be2c89b69c2b068fc378daa952ba7f163c4a11628f55a4df523b3ef910160405180910390a3505050565b610cc082826107f2565b61064457610ccd81610d0f565b610cd8836020610d21565b604051602001610ce992919061116e565b60408051601f198184030181529082905262461bcd60e51b825261056991600401610f12565b606061049f6001600160a01b03831660145b60606000610d308360026111e3565b610d3b90600261112f565b67ffffffffffffffff811115610d5357610d536111fa565b6040519080825280601f01601f191660200182016040528015610d7d576020820181803683370190505b509050600360fc1b81600081518110610d9857610d98611210565b60200101906001600160f81b031916908160001a905350600f60fb1b81600181518110610dc757610dc7611210565b60200101906001600160f81b031916908160001a9053506000610deb8460026111e3565b610df690600161112f565b90505b6001811115610e6e576f181899199a1a9b1b9c1cb0b131b232b360811b85600f1660108110610e2a57610e2a611210565b1a60f81b828281518110610e4057610e40611210565b60200101906001600160f81b031916908160001a90535060049490941c93610e6781611226565b9050610df9565b508315610ebd5760405162461bcd60e51b815260206004820181905260248201527f537472696e67733a20686578206c656e67746820696e73756666696369656e746044820152606401610569565b9392505050565b600060208284031215610ed657600080fd5b81356001600160e01b031981168114610ebd57600080fd5b60005b83811015610f09578181015183820152602001610ef1565b50506000910152565b6020815260008251806020840152610f31816040850160208701610eee565b601f01601f19169190910160400192915050565b6001600160a01b038116811461095757600080fd5b60008060408385031215610f6d57600080fd5b8235610f7881610f45565b946020939093013593505050565b600080600060608486031215610f9b57600080fd5b8335610fa681610f45565b92506020840135610fb681610f45565b929592945050506040919091013590565b600060208284031215610fd957600080fd5b5035919050565b60008060408385031215610ff357600080fd5b82359150602083013561100581610f45565b809150509250929050565b60006020828403121561102257600080fd5b8135610ebd81610f45565b60008060006060848603121561104257600080fd5b833561104d81610f45565b92506020840135915060408401356003811061106857600080fd5b809150509250925092565b634e487b7160e01b600052602160045260246000fd5b60208101600383106110ab57634e487b7160e01b600052602160045260246000fd5b91905290565b600080604083850312156110c457600080fd5b82356110cf81610f45565b9150602083013561100581610f45565b600181811c908216806110f357607f821691505b60208210810361111357634e487b7160e01b600052602260045260246000fd5b50919050565b634e487b7160e01b600052601160045260246000fd5b8082018082111561049f5761049f611119565b60006020828403121561115457600080fd5b5051919050565b8181038181111561049f5761049f611119565b7f416363657373436f6e74726f6c3a206163636f756e74200000000000000000008152600083516111a6816017850160208801610eee565b7001034b99036b4b9b9b4b733903937b6329607d1b60179184019182015283516111d7816028840160208801610eee565b01602801949350505050565b808202811582820484141761049f5761049f611119565b634e487b7160e01b600052604160045260246000fd5b634e487b7160e01b600052603260045260246000fd5b60008161123557611235611119565b50600019019056fea2646970667358221220a32f3db479b6d6d8f2d107393232ca4722c7b20c0c61350c41df94008e57fdf564736f6c63430008170033","linkReferences":{}},"methodIdentifiers":{"DEFAULT_ADMIN_ROLE()":"a217fddf","MAX_PER_USER()":"c7ba7548","MINT_BURN_ROLE()":"d03563ca","_votingStrategy()":"f1f39ceb","adjust(address,uint256,uint8)":"c650b2dd","admin()":"f851a440","allowance(address,address)":"dd62ed3e","approve(address,uint256)":"095ea7b3","balanceOf(address)":"70a08231","burn(address,uint256)":"9dc29fac","cgpa(address)":"4a5d730d","decimals()":"313ce567","getRoleAdmin(bytes32)":"248a9ca3","grantRole(bytes32,address)":"2f2ff15d","hasRole(bytes32,address)":"91d14854","maxPerUser()":"06d586bb","mint(address,uint256,uint8)":"6112e8ac","name()":"06fdde03","renounceRole(bytes32,address)":"36568abe","revoke(address)":"74a8f103","revokeRole(bytes32,address)":"d547741f","setAdmin(address)":"704b6c02","setStrategy(address)":"33a100ca","strategy()":"a8c62e76","supportsInterface(bytes4)":"01ffc9a7","symbol()":"95d89b41","totalSupply()":"18160ddd","transfer(address,uint256)":"a9059cbb","transferFrom(address,address,uint256)":"23b872dd","userType(address)":"b83458b0","votingStrategy()":"fb5c8bfd"},"id":40}