{"abi":[{"type":"constructor","inputs":[{"name":"_admin","type":"address","internalType":"address"},{"name":"_keeper","type":"address","internalType":"address"}],"stateMutability":"nonpayable"},{"type":"function","name":"DEFAULT_ADMIN_ROLE","inputs":[],"outputs":[{"name":"","type":"bytes32","internalType":"bytes32"}],"stateMutability":"view"},{"type":"function","name":"MAX_PER_USER","inputs":[],"outputs":[{"name":"","type":"uint256","internalType":"uint256"}],"stateMutability":"view"},{"type":"function","name":"MINT_BURN_ROLE","inputs":[],"outputs":[{"name":"","type":"bytes32","internalType":"bytes32"}],"stateMutability":"view"},{"type":"function","name":"_votingStrategy","inputs":[],"outputs":[{"name":"","type":"address","internalType":"contract IVotingStrategy"}],"stateMutability":"view"},{"type":"function","name":"admin","inputs":[],"outputs":[{"name":"","type":"address","internalType":"address"}],"stateMutability":"view"},{"type":"function","name":"allowance","inputs":[{"name":"owner","type":"address","internalType":"address"},{"name":"spender","type":"address","internalType":"address"}],"outputs":[{"name":"","type":"uint256","internalType":"uint256"}],"stateMutability":"pure"},{"type":"function","name":"approve","inputs":[{"name":"spender","type":"address","internalType":"address"},{"name":"amount","type":"uint256","internalType":"uint256"}],"outputs":[{"name":"","type":"bool","internalType":"bool"}],"stateMutability":"pure"},{"type":"function","name":"balanceOf","inputs":[{"name":"_account","type":"address","internalType":"address"}],"outputs":[{"name":"","type":"uint256","internalType":"uint256"}],"stateMutability":"view"},{"type":"function","name":"burn","inputs":[{"name":"user","type":"address","internalType":"address"},{"name":"amount","type":"uint256","internalType":"uint256"}],"outputs":[],"stateMutability":"nonpayable"},{"type":"function","name":"cgpa","inputs":[{"name":"account","type":"address","internalType":"address"}],"outputs":[{"name":"","type":"uint256","internalType":"uint256"}],"stateMutability":"view"},{"type":"function","name":"decimals","inputs":[],"outputs":[{"name":"","type":"uint8","internalType":"uint8"}],"stateMutability":"view"},{"type":"function","name":"getRoleAdmin","inputs":[{"name":"role","type":"bytes32","internalType":"bytes32"}],"outputs":[{"name":"","type":"bytes32","internalType":"bytes32"}],"stateMutability":"view"},{"type":"function","name":"grantRole","inputs":[{"name":"role","type":"bytes32","internalType":"bytes32"},{"name":"account","type":"address","internalType":"address"}],"outputs":[],"stateMutability":"nonpayable"},{"type":"function","name":"hasRole","inputs":[{"name":"role","type":"bytes32","internalType":"bytes32"},{"name":"account","type":"address","internalType":"address"}],"outputs":[{"name":"","type":"bool","internalType":"bool"}],"stateMutability":"view"},{"type":"function","name":"maxPerUser","inputs":[],"outputs":[{"name":"","type":"uint256","internalType":"uint256"}],"stateMutability":"view"},{"type":"function","name":"mint","inputs":[{"name":"_user","type":"address","internalType":"address"},{"name":"_amount","type":"uint256","internalType":"uint256"},{"name":"_userType","type":"uint8","internalType":"enum UserType"}],"outputs":[],"stateMutability":"nonpayable"},{"type":"function","name":"name","inputs":[],"outputs":[{"name":"","type":"string","internalType":"string"}],"stateMutability":"view"},{"type":"function","name":"renounceRole","inputs":[{"name":"role","type":"bytes32","internalType":"bytes32"},{"name":"account","type":"address","internalType":"address"}],"outputs":[],"stateMutability":"nonpayable"},{"type":"function","name":"revoke","inputs":[{"name":"_user","type":"address","internalType":"address"}],"outputs":[],"stateMutability":"nonpayable"},{"type":"function","name":"revokeRole","inputs":[{"name":"role","type":"bytes32","internalType":"bytes32"},{"name":"account","type":"address","internalType":"address"}],"outputs":[],"stateMutability":"nonpayable"},{"type":"function","name":"setAdmin","inputs":[{"name":"_admin","type":"address","internalType":"address"}],"outputs":[],"stateMutability":"nonpayable"},{"type":"function","name":"setStrategy","inputs":[{"name":"newVotingStrategy","type":"address","internalType":"contract IVotingStrategy"}],"outputs":[],"stateMutability":"nonpayable"},{"type":"function","name":"strategy","inputs":[],"outputs":[{"name":"","type":"address","internalType":"address"}],"stateMutability":"view"},{"type":"function","name":"supportsInterface","inputs":[{"name":"interfaceId","type":"bytes4","internalType":"bytes4"}],"outputs":[{"name":"","type":"bool","internalType":"bool"}],"stateMutability":"view"},{"type":"function","name":"symbol","inputs":[],"outputs":[{"name":"","type":"string","internalType":"string"}],"stateMutability":"view"},{"type":"function","name":"totalSupply","inputs":[],"outputs":[{"name":"","type":"uint256","internalType":"uint256"}],"stateMutability":"view"},{"type":"function","name":"transfer","inputs":[{"name":"to","type":"address","internalType":"address"},{"name":"amount","type":"uint256","internalType":"uint256"}],"outputs":[{"name":"","type":"bool","internalType":"bool"}],"stateMutability":"pure"},{"type":"function","name":"transferFrom","inputs":[{"name":"from","type":"address","internalType":"address"},{"name":"to","type":"address","internalType":"address"},{"name":"amount","type":"uint256","internalType":"uint256"}],"outputs":[{"name":"","type":"bool","internalType":"bool"}],"stateMutability":"pure"},{"type":"function","name":"userType","inputs":[{"name":"account","type":"address","internalType":"address"}],"outputs":[{"name":"","type":"uint8","internalType":"enum UserType"}],"stateMutability":"view"},{"type":"function","name":"votingStrategy","inputs":[],"outputs":[{"name":"","type":"address","internalType":"contract IVotingStrategy"}],"stateMutability":"view"},{"type":"event","name":"Approval","inputs":[{"name":"owner","type":"address","indexed":true,"internalType":"address"},{"name":"spender","type":"address","indexed":true,"internalType":"address"},{"name":"value","type":"uint256","indexed":false,"internalType":"uint256"}],"anonymous":false},{"type":"event","name":"NewStrategy","inputs":[{"name":"strategy","type":"address","indexed":true,"internalType":"address"}],"anonymous":false},{"type":"event","name":"RoleAdminChanged","inputs":[{"name":"role","type":"bytes32","indexed":true,"internalType":"bytes32"},{"name":"previousAdminRole","type":"bytes32","indexed":true,"internalType":"bytes32"},{"name":"newAdminRole","type":"bytes32","indexed":true,"internalType":"bytes32"}],"anonymous":false},{"type":"event","name":"RoleGranted","inputs":[{"name":"role","type":"bytes32","indexed":true,"internalType":"bytes32"},{"name":"account","type":"address","indexed":true,"internalType":"address"},{"name":"sender","type":"address","indexed":true,"internalType":"address"}],"anonymous":false},{"type":"event","name":"RoleRevoked","inputs":[{"name":"role","type":"bytes32","indexed":true,"internalType":"bytes32"},{"name":"account","type":"address","indexed":true,"internalType":"address"},{"name":"sender","type":"address","indexed":true,"internalType":"address"}],"anonymous":false},{"type":"event","name":"Transfer","inputs":[{"name":"from","type":"address","indexed":true,"internalType":"address"},{"name":"to","type":"address","indexed":true,"internalType":"address"},{"name":"value","type":"uint256","indexed":false,"internalType":"uint256"}],"anonymous":false},{"type":"error","name":"EMPTY_BALANCE","inputs":[]},{"type":"error","name":"EXCEEDED_MAX_PER_USER","inputs":[]},{"type":"error","name":"UNDESIRED_BEHAVIOR","inputs":[]},{"type":"error","name":"USERTYPE_NONE","inputs":[]}],"bytecode":{"object":"0x60a06040527fa60cb0df7bc178038b993aa2e0df2e2cfb6627f4695e4261227d47422ae7e2a66007553480156200003557600080fd5b50604051620016c8380380620016c8833981016040819052620000589162000246565b6040518060400160405280601481526020017f53747564656e7420566f74696e6720506f7765720000000000000000000000008152506040518060400160405280600381526020016205356560ec1b81525060048260029081620000bd919062000325565b506003620000cc838262000325565b50620000db6002600a62000504565b620000ea9060ff83166200051c565b60805250620000ff9150600090508362000126565b6007546200010e908262000126565b6007546200011e906000620001b1565b505062000536565b620001328282620001fc565b620001ad5760008281526005602090815260408083206001600160a01b03851684529091529020805460ff191660011790556200016c3390565b6001600160a01b0316816001600160a01b0316837f2f8788117e7eff1d82e926ec794901d17c78024a50270940304540a733656f0d60405160405180910390a45b5050565b600082815260056020526040808220600101805490849055905190918391839186917fbd79b86ffe0ab8e8776151514217cd7cacd52c909f66475c3af44e129f0b00ff9190a4505050565b60008281526005602090815260408083206001600160a01b038516845290915290205460ff165b92915050565b80516001600160a01b03811681146200024157600080fd5b919050565b600080604083850312156200025a57600080fd5b620002658362000229565b9150620002756020840162000229565b90509250929050565b634e487b7160e01b600052604160045260246000fd5b600181811c90821680620002a957607f821691505b602082108103620002ca57634e487b7160e01b600052602260045260246000fd5b50919050565b601f82111562000320576000816000526020600020601f850160051c81016020861015620002fb5750805b601f850160051c820191505b818110156200031c5782815560010162000307565b5050505b505050565b81516001600160401b038111156200034157620003416200027e565b620003598162000352845462000294565b84620002d0565b602080601f831160018114620003915760008415620003785750858301515b600019600386901b1c1916600185901b1785556200031c565b600085815260208120601f198616915b82811015620003c257888601518255948401946001909101908401620003a1565b5085821015620003e15787850151600019600388901b60f8161c191681555b5050505050600190811b01905550565b634e487b7160e01b600052601160045260246000fd5b600181815b80851115620004485781600019048211156200042c576200042c620003f1565b808516156200043a57918102915b93841c93908002906200040c565b509250929050565b600082620004615750600162000223565b81620004705750600062000223565b81600181146200048957600281146200049457620004b4565b600191505062000223565b60ff841115620004a857620004a8620003f1565b50506001821b62000223565b5060208310610133831016604e8410600b8410161715620004d9575081810a62000223565b620004e5838362000407565b8060001904821115620004fc57620004fc620003f1565b029392505050565b60006200051560ff84168362000450565b9392505050565b8082028115828204841417620002235762000223620003f1565b60805161117662000552600039600061020901526111766000f3fe608060405234801561001057600080fd5b50600436106101da5760003560e01c806374a8f10311610104578063b83458b0116100a2578063dd62ed3e11610071578063dd62ed3e14610401578063f1f39ceb14610417578063f851a4401461042a578063fb5c8bfd1461043d57600080fd5b8063b83458b01461039c578063c7ba7548146103dc578063d03563ca146103e5578063d547741f146103ee57600080fd5b80639dc29fac116100de5780639dc29fac1461035c578063a217fddf1461036f578063a8c62e7614610377578063a9059cbb1461024c57600080fd5b806374a8f1031461032e57806391d148541461034157806395d89b411461035457600080fd5b80632f2ff15d1161017c5780634a5d730d1161014b5780634a5d730d146102e25780636112e8ac146102f5578063704b6c021461030857806370a082311461031b57600080fd5b80632f2ff15d14610298578063313ce567146102ad57806333a100ca146102bc57806336568abe146102cf57600080fd5b8063095ea7b3116101b8578063095ea7b31461024c57806318160ddd1461025f57806323b872dd14610267578063248a9ca31461027557600080fd5b806301ffc9a7146101df57806306d586bb1461020757806306fdde0314610237575b600080fd5b6101f26101ed366004610dda565b610450565b60405190151581526020015b60405180910390f35b7f00000000000000000000000000000000000000000000000000000000000000005b6040519081526020016101fe565b61023f610487565b6040516101fe9190610e28565b6101f261025a366004610e70565b610519565b600154610229565b6101f261025a366004610e9c565b610229610283366004610edd565b60009081526005602052604090206001015490565b6102ab6102a6366004610ef6565b610554565b005b604051600281526020016101fe565b6102ab6102ca366004610f26565b61057e565b6102ab6102dd366004610ef6565b6105ac565b6102296102f0366004610f26565b61062a565b6102ab610303366004610f43565b61064e565b6102ab610316366004610f26565b6106db565b610229610329366004610f26565b610709565b6102ab61033c366004610f26565b610785565b6101f261034f366004610ef6565b6107d4565b61023f6107ff565b6102ab61036a366004610e70565b61080e565b610229600081565b6004546001600160a01b03165b6040516001600160a01b0390911681526020016101fe565b6103cf6103aa366004610f26565b6001600160a01b0316600090815260208190526040902054600160f81b900460ff1690565b6040516101fe9190610f9f565b61022961019081565b61022960075481565b6102ab6103fc366004610ef6565b61083e565b61022961040f366004610fc7565b600092915050565b600454610384906001600160a01b031681565b600654610384906001600160a01b031681565b600854610384906001600160a01b031681565b60006001600160e01b03198216637965db0b60e01b148061048157506301ffc9a760e01b6001600160e01b03198316145b92915050565b60606002805461049690610ff5565b80601f01602080910402602001604051908101604052809291908181526020018280546104c290610ff5565b801561050f5780601f106104e45761010080835404028352916020019161050f565b820191906000526020600020905b8154815290600101906020018083116104f257829003601f168201915b5050505050905090565b60405162461bcd60e51b8152602060048201526008602482015267191a5cd8589b195960c21b60448201526000906064015b60405180910390fd5b60008281526005602052604090206001015461056f81610863565b6105798383610870565b505050565b600061058981610863565b50600880546001600160a01b0319166001600160a01b0392909216919091179055565b6001600160a01b038116331461061c5760405162461bcd60e51b815260206004820152602f60248201527f416363657373436f6e74726f6c3a2063616e206f6e6c792072656e6f756e636560448201526e103937b632b9903337b91039b2b63360891b606482015260840161054b565b61062682826108f6565b5050565b6001600160a01b03166000908152602081905260409020546001600160f81b031690565b60075461065a81610863565b6101906106668561062a565b6106709085611045565b111561068f576040516357c2fca960e01b815260040160405180910390fd5b60008260028111156106a3576106a3610f89565b036106c157604051638810bfa760e01b815260040160405180910390fd5b6106cb848361095d565b6106d584846109a3565b50505050565b60006106e681610863565b50600680546001600160a01b0319166001600160a01b0392909216919091179055565b6008546000906001600160a01b0316639c6d29766107268461062a565b6040518263ffffffff1660e01b815260040161074491815260200190565b602060405180830381865afa158015610761573d6000803e3d6000fd5b505050506040513d601f19601f820116820180604052508101906104819190611058565b60075461079181610863565b600061079c83610709565b9050806000036107bf5760405163083ebd6f60e31b815260040160405180910390fd5b6107ca83600061095d565b6105798382610a7b565b60009182526005602090815260408084206001600160a01b0393909316845291905290205460ff1690565b60606003805461049690610ff5565b60075461081a81610863565b8161082484610709565b036108345761083483600061095d565b6105798383610a7b565b60008281526005602052604090206001015461085981610863565b61057983836108f6565b61086d8133610bcc565b50565b61087a82826107d4565b6106265760008281526005602090815260408083206001600160a01b03851684529091529020805460ff191660011790556108b23390565b6001600160a01b0316816001600160a01b0316837f2f8788117e7eff1d82e926ec794901d17c78024a50270940304540a733656f0d60405160405180910390a45050565b61090082826107d4565b156106265760008281526005602090815260408083206001600160a01b0385168085529252808320805460ff1916905551339285917ff6391f5c32d9c69d2a47ea670b442974b53935d1edc7fd64eb21e047a839171b9190a45050565b6001600160a01b038216600090815260208190526040902080548291906001600160f81b0316600160f81b83600281111561099a5761099a610f89565b02179055505050565b6001600160a01b0382166109f95760405162461bcd60e51b815260206004820152601f60248201527f45524332303a206d696e7420746f20746865207a65726f206164647265737300604482015260640161054b565b8060016000828254610a0b9190611045565b90915550506001600160a01b03821660008181526020818152604080832080546001600160f81b038082168801166001600160f81b0319909116179055518481527fddf252ad1be2c89b69c2b068fc378daa952ba7f163c4a11628f55a4df523b3ef910160405180910390a35050565b6001600160a01b038216610adb5760405162461bcd60e51b815260206004820152602160248201527f45524332303a206275726e2066726f6d20746865207a65726f206164647265736044820152607360f81b606482015260840161054b565b6001600160a01b0382166000908152602081905260409020546001600160f81b031681811015610b585760405162461bcd60e51b815260206004820152602260248201527f45524332303a206275726e20616d6f756e7420657863656564732062616c616e604482015261636560f01b606482015260840161054b565b6001600160a01b03831660008181526020818152604080832080546001600160f81b0319168787036001600160f81b0316179055600180548790039055518581529192917fddf252ad1be2c89b69c2b068fc378daa952ba7f163c4a11628f55a4df523b3ef910160405180910390a3505050565b610bd682826107d4565b61062657610be381610c25565b610bee836020610c37565b604051602001610bff929190611071565b60408051601f198184030181529082905262461bcd60e51b825261054b91600401610e28565b60606104816001600160a01b03831660145b60606000610c468360026110e6565b610c51906002611045565b67ffffffffffffffff811115610c6957610c696110fd565b6040519080825280601f01601f191660200182016040528015610c93576020820181803683370190505b509050600360fc1b81600081518110610cae57610cae611113565b60200101906001600160f81b031916908160001a905350600f60fb1b81600181518110610cdd57610cdd611113565b60200101906001600160f81b031916908160001a9053506000610d018460026110e6565b610d0c906001611045565b90505b6001811115610d84576f181899199a1a9b1b9c1cb0b131b232b360811b85600f1660108110610d4057610d40611113565b1a60f81b828281518110610d5657610d56611113565b60200101906001600160f81b031916908160001a90535060049490941c93610d7d81611129565b9050610d0f565b508315610dd35760405162461bcd60e51b815260206004820181905260248201527f537472696e67733a20686578206c656e67746820696e73756666696369656e74604482015260640161054b565b9392505050565b600060208284031215610dec57600080fd5b81356001600160e01b031981168114610dd357600080fd5b60005b83811015610e1f578181015183820152602001610e07565b50506000910152565b6020815260008251806020840152610e47816040850160208701610e04565b601f01601f19169190910160400192915050565b6001600160a01b038116811461086d57600080fd5b60008060408385031215610e8357600080fd5b8235610e8e81610e5b565b946020939093013593505050565b600080600060608486031215610eb157600080fd5b8335610ebc81610e5b565b92506020840135610ecc81610e5b565b929592945050506040919091013590565b600060208284031215610eef57600080fd5b5035919050565b60008060408385031215610f0957600080fd5b823591506020830135610f1b81610e5b565b809150509250929050565b600060208284031215610f3857600080fd5b8135610dd381610e5b565b600080600060608486031215610f5857600080fd5b8335610f6381610e5b565b925060208401359150604084013560038110610f7e57600080fd5b809150509250925092565b634e487b7160e01b600052602160045260246000fd5b6020810160038310610fc157634e487b7160e01b600052602160045260246000fd5b91905290565b60008060408385031215610fda57600080fd5b8235610fe581610e5b565b91506020830135610f1b81610e5b565b600181811c9082168061100957607f821691505b60208210810361102957634e487b7160e01b600052602260045260246000fd5b50919050565b634e487b7160e01b600052601160045260246000fd5b808201808211156104815761048161102f565b60006020828403121561106a57600080fd5b5051919050565b7f416363657373436f6e74726f6c3a206163636f756e74200000000000000000008152600083516110a9816017850160208801610e04565b7001034b99036b4b9b9b4b733903937b6329607d1b60179184019182015283516110da816028840160208801610e04565b01602801949350505050565b80820281158282048414176104815761048161102f565b634e487b7160e01b600052604160045260246000fd5b634e487b7160e01b600052603260045260246000fd5b6000816111385761113861102f565b50600019019056fea264697066735822122003093005b8525398aee69c88a7ad2c5fd1ec45814443c83d2d42e3f10933bf7b64736f6c63430008170033","linkReferences":{}},"methodIdentifiers":{"DEFAULT_ADMIN_ROLE()":"a217fddf","MAX_PER_USER()":"c7ba7548","MINT_BURN_ROLE()":"d03563ca","_votingStrategy()":"f1f39ceb","admin()":"f851a440","allowance(address,address)":"dd62ed3e","approve(address,uint256)":"095ea7b3","balanceOf(address)":"70a08231","burn(address,uint256)":"9dc29fac","cgpa(address)":"4a5d730d","decimals()":"313ce567","getRoleAdmin(bytes32)":"248a9ca3","grantRole(bytes32,address)":"2f2ff15d","hasRole(bytes32,address)":"91d14854","maxPerUser()":"06d586bb","mint(address,uint256,uint8)":"6112e8ac","name()":"06fdde03","renounceRole(bytes32,address)":"36568abe","revoke(address)":"74a8f103","revokeRole(bytes32,address)":"d547741f","setAdmin(address)":"704b6c02","setStrategy(address)":"33a100ca","strategy()":"a8c62e76","supportsInterface(bytes4)":"01ffc9a7","symbol()":"95d89b41","totalSupply()":"18160ddd","transfer(address,uint256)":"a9059cbb","transferFrom(address,address,uint256)":"23b872dd","userType(address)":"b83458b0","votingStrategy()":"fb5c8bfd"},"id":35}